{
  "_format": "hh-sol-artifact-1",
  "contractName": "NFTMarketplace",
  "sourceName": "contracts/NFTMarketplace.sol",
  "abi": [
    {
      "inputs": [],
      "stateMutability": "nonpayable",
      "type": "constructor"
    },
    {
      "anonymous": false,
      "inputs": [
        {
          "indexed": true,
          "internalType": "address",
          "name": "owner",
          "type": "address"
        },
        {
          "indexed": true,
          "internalType": "address",
          "name": "approved",
          "type": "address"
        },
        {
          "indexed": true,
          "internalType": "uint256",
          "name": "tokenId",
          "type": "uint256"
        }
      ],
      "name": "Approval",
      "type": "event"
    },
    {
      "anonymous": false,
      "inputs": [
        {
          "indexed": true,
          "internalType": "address",
          "name": "owner",
          "type": "address"
        },
        {
          "indexed": true,
          "internalType": "address",
          "name": "operator",
          "type": "address"
        },
        {
          "indexed": false,
          "internalType": "bool",
          "name": "approved",
          "type": "bool"
        }
      ],
      "name": "ApprovalForAll",
      "type": "event"
    },
    {
      "anonymous": false,
      "inputs": [
        {
          "indexed": false,
          "internalType": "uint256",
          "name": "_fromTokenId",
          "type": "uint256"
        },
        {
          "indexed": false,
          "internalType": "uint256",
          "name": "_toTokenId",
          "type": "uint256"
        }
      ],
      "name": "BatchMetadataUpdate",
      "type": "event"
    },
    {
      "anonymous": false,
      "inputs": [
        {
          "indexed": true,
          "internalType": "uint256",
          "name": "tokenId",
          "type": "uint256"
        },
        {
          "indexed": false,
          "internalType": "address",
          "name": "seller",
          "type": "address"
        },
        {
          "indexed": false,
          "internalType": "address",
          "name": "owner",
          "type": "address"
        },
        {
          "indexed": false,
          "internalType": "uint256",
          "name": "price",
          "type": "uint256"
        },
        {
          "indexed": false,
          "internalType": "bool",
          "name": "sold",
          "type": "bool"
        }
      ],
      "name": "MarketItemCreated",
      "type": "event"
    },
    {
      "anonymous": false,
      "inputs": [
        {
          "indexed": true,
          "internalType": "uint256",
          "name": "tokenId",
          "type": "uint256"
        },
        {
          "indexed": false,
          "internalType": "address",
          "name": "seller",
          "type": "address"
        },
        {
          "indexed": false,
          "internalType": "address",
          "name": "owner",
          "type": "address"
        },
        {
          "indexed": false,
          "internalType": "uint256",
          "name": "price",
          "type": "uint256"
        }
      ],
      "name": "MarketItemResold",
      "type": "event"
    },
    {
      "anonymous": false,
      "inputs": [
        {
          "indexed": true,
          "internalType": "uint256",
          "name": "tokenId",
          "type": "uint256"
        },
        {
          "indexed": false,
          "internalType": "address",
          "name": "seller",
          "type": "address"
        },
        {
          "indexed": false,
          "internalType": "address",
          "name": "owner",
          "type": "address"
        },
        {
          "indexed": false,
          "internalType": "uint256",
          "name": "price",
          "type": "uint256"
        }
      ],
      "name": "MarketItemSold",
      "type": "event"
    },
    {
      "anonymous": false,
      "inputs": [
        {
          "indexed": false,
          "internalType": "uint256",
          "name": "_tokenId",
          "type": "uint256"
        }
      ],
      "name": "MetadataUpdate",
      "type": "event"
    },
    {
      "anonymous": false,
      "inputs": [
        {
          "indexed": true,
          "internalType": "address",
          "name": "from",
          "type": "address"
        },
        {
          "indexed": true,
          "internalType": "address",
          "name": "to",
          "type": "address"
        },
        {
          "indexed": true,
          "internalType": "uint256",
          "name": "tokenId",
          "type": "uint256"
        }
      ],
      "name": "Transfer",
      "type": "event"
    },
    {
      "inputs": [
        {
          "internalType": "address",
          "name": "to",
          "type": "address"
        },
        {
          "internalType": "uint256",
          "name": "tokenId",
          "type": "uint256"
        }
      ],
      "name": "approve",
      "outputs": [],
      "stateMutability": "nonpayable",
      "type": "function"
    },
    {
      "inputs": [
        {
          "internalType": "address",
          "name": "owner",
          "type": "address"
        }
      ],
      "name": "balanceOf",
      "outputs": [
        {
          "internalType": "uint256",
          "name": "",
          "type": "uint256"
        }
      ],
      "stateMutability": "view",
      "type": "function"
    },
    {
      "inputs": [
        {
          "internalType": "string",
          "name": "tokenURI",
          "type": "string"
        },
        {
          "internalType": "uint256",
          "name": "price",
          "type": "uint256"
        }
      ],
      "name": "createMarketItemToken",
      "outputs": [
        {
          "internalType": "uint256",
          "name": "",
          "type": "uint256"
        }
      ],
      "stateMutability": "payable",
      "type": "function"
    },
    {
      "inputs": [
        {
          "internalType": "uint256",
          "name": "tokenId",
          "type": "uint256"
        }
      ],
      "name": "createMarketSale",
      "outputs": [],
      "stateMutability": "payable",
      "type": "function"
    },
    {
      "inputs": [],
      "name": "fetchItemsListed",
      "outputs": [
        {
          "components": [
            {
              "internalType": "uint256",
              "name": "tokenId",
              "type": "uint256"
            },
            {
              "internalType": "address payable",
              "name": "seller",
              "type": "address"
            },
            {
              "internalType": "address payable",
              "name": "owner",
              "type": "address"
            },
            {
              "internalType": "uint256",
              "name": "price",
              "type": "uint256"
            },
            {
              "internalType": "bool",
              "name": "sold",
              "type": "bool"
            }
          ],
          "internalType": "struct NFTMarketplace.MarketItem[]",
          "name": "",
          "type": "tuple[]"
        }
      ],
      "stateMutability": "view",
      "type": "function"
    },
    {
      "inputs": [],
      "name": "fetchMarketItems",
      "outputs": [
        {
          "components": [
            {
              "internalType": "uint256",
              "name": "tokenId",
              "type": "uint256"
            },
            {
              "internalType": "address payable",
              "name": "seller",
              "type": "address"
            },
            {
              "internalType": "address payable",
              "name": "owner",
              "type": "address"
            },
            {
              "internalType": "uint256",
              "name": "price",
              "type": "uint256"
            },
            {
              "internalType": "bool",
              "name": "sold",
              "type": "bool"
            }
          ],
          "internalType": "struct NFTMarketplace.MarketItem[]",
          "name": "",
          "type": "tuple[]"
        }
      ],
      "stateMutability": "view",
      "type": "function"
    },
    {
      "inputs": [],
      "name": "fetchMyNFTs",
      "outputs": [
        {
          "components": [
            {
              "internalType": "uint256",
              "name": "tokenId",
              "type": "uint256"
            },
            {
              "internalType": "address payable",
              "name": "seller",
              "type": "address"
            },
            {
              "internalType": "address payable",
              "name": "owner",
              "type": "address"
            },
            {
              "internalType": "uint256",
              "name": "price",
              "type": "uint256"
            },
            {
              "internalType": "bool",
              "name": "sold",
              "type": "bool"
            }
          ],
          "internalType": "struct NFTMarketplace.MarketItem[]",
          "name": "",
          "type": "tuple[]"
        }
      ],
      "stateMutability": "view",
      "type": "function"
    },
    {
      "inputs": [
        {
          "internalType": "uint256",
          "name": "tokenId",
          "type": "uint256"
        }
      ],
      "name": "getApproved",
      "outputs": [
        {
          "internalType": "address",
          "name": "",
          "type": "address"
        }
      ],
      "stateMutability": "view",
      "type": "function"
    },
    {
      "inputs": [],
      "name": "getListingPrice",
      "outputs": [
        {
          "internalType": "uint256",
          "name": "",
          "type": "uint256"
        }
      ],
      "stateMutability": "view",
      "type": "function"
    },
    {
      "inputs": [
        {
          "internalType": "address",
          "name": "owner",
          "type": "address"
        },
        {
          "internalType": "address",
          "name": "operator",
          "type": "address"
        }
      ],
      "name": "isApprovedForAll",
      "outputs": [
        {
          "internalType": "bool",
          "name": "",
          "type": "bool"
        }
      ],
      "stateMutability": "view",
      "type": "function"
    },
    {
      "inputs": [],
      "name": "name",
      "outputs": [
        {
          "internalType": "string",
          "name": "",
          "type": "string"
        }
      ],
      "stateMutability": "view",
      "type": "function"
    },
    {
      "inputs": [
        {
          "internalType": "uint256",
          "name": "tokenId",
          "type": "uint256"
        }
      ],
      "name": "ownerOf",
      "outputs": [
        {
          "internalType": "address",
          "name": "",
          "type": "address"
        }
      ],
      "stateMutability": "view",
      "type": "function"
    },
    {
      "inputs": [
        {
          "internalType": "uint256",
          "name": "tokenId",
          "type": "uint256"
        },
        {
          "internalType": "uint256",
          "name": "price",
          "type": "uint256"
        }
      ],
      "name": "resellToken",
      "outputs": [],
      "stateMutability": "payable",
      "type": "function"
    },
    {
      "inputs": [
        {
          "internalType": "address",
          "name": "from",
          "type": "address"
        },
        {
          "internalType": "address",
          "name": "to",
          "type": "address"
        },
        {
          "internalType": "uint256",
          "name": "tokenId",
          "type": "uint256"
        }
      ],
      "name": "safeTransferFrom",
      "outputs": [],
      "stateMutability": "nonpayable",
      "type": "function"
    },
    {
      "inputs": [
        {
          "internalType": "address",
          "name": "from",
          "type": "address"
        },
        {
          "internalType": "address",
          "name": "to",
          "type": "address"
        },
        {
          "internalType": "uint256",
          "name": "tokenId",
          "type": "uint256"
        },
        {
          "internalType": "bytes",
          "name": "data",
          "type": "bytes"
        }
      ],
      "name": "safeTransferFrom",
      "outputs": [],
      "stateMutability": "nonpayable",
      "type": "function"
    },
    {
      "inputs": [
        {
          "internalType": "address",
          "name": "operator",
          "type": "address"
        },
        {
          "internalType": "bool",
          "name": "approved",
          "type": "bool"
        }
      ],
      "name": "setApprovalForAll",
      "outputs": [],
      "stateMutability": "nonpayable",
      "type": "function"
    },
    {
      "inputs": [
        {
          "internalType": "bytes4",
          "name": "interfaceId",
          "type": "bytes4"
        }
      ],
      "name": "supportsInterface",
      "outputs": [
        {
          "internalType": "bool",
          "name": "",
          "type": "bool"
        }
      ],
      "stateMutability": "view",
      "type": "function"
    },
    {
      "inputs": [],
      "name": "symbol",
      "outputs": [
        {
          "internalType": "string",
          "name": "",
          "type": "string"
        }
      ],
      "stateMutability": "view",
      "type": "function"
    },
    {
      "inputs": [
        {
          "internalType": "uint256",
          "name": "tokenId",
          "type": "uint256"
        }
      ],
      "name": "tokenURI",
      "outputs": [
        {
          "internalType": "string",
          "name": "",
          "type": "string"
        }
      ],
      "stateMutability": "view",
      "type": "function"
    },
    {
      "inputs": [
        {
          "internalType": "address",
          "name": "from",
          "type": "address"
        },
        {
          "internalType": "address",
          "name": "to",
          "type": "address"
        },
        {
          "internalType": "uint256",
          "name": "tokenId",
          "type": "uint256"
        }
      ],
      "name": "transferFrom",
      "outputs": [],
      "stateMutability": "nonpayable",
      "type": "function"
    },
    {
      "inputs": [
        {
          "internalType": "uint256",
          "name": "_listingPrice",
          "type": "uint256"
        }
      ],
      "name": "updateListingPrice",
      "outputs": [],
      "stateMutability": "payable",
      "type": "function"
    }
  ],
  "bytecode": "0x608060405266082bd67afbc0006009553480156200001c57600080fd5b506040518060400160405280600e81526020017f4379636c6f6e6520546f6b656e730000000000000000000000000000000000008152506040518060400160405280600381526020017f43544e000000000000000000000000000000000000000000000000000000000081525081600090816200009a919062000370565b508060019081620000ac919062000370565b50505033600a60006101000a81548173ffffffffffffffffffffffffffffffffffffffff021916908373ffffffffffffffffffffffffffffffffffffffff16021790555062000457565b600081519050919050565b7f4e487b7100000000000000000000000000000000000000000000000000000000600052604160045260246000fd5b7f4e487b7100000000000000000000000000000000000000000000000000000000600052602260045260246000fd5b600060028204905060018216806200017857607f821691505b6020821081036200018e576200018d62000130565b5b50919050565b60008190508160005260206000209050919050565b60006020601f8301049050919050565b600082821b905092915050565b600060088302620001f87fffffffffffffffffffffffffffffffffffffffffffffffffffffffffffffffff82620001b9565b620002048683620001b9565b95508019841693508086168417925050509392505050565b6000819050919050565b6000819050919050565b6000620002516200024b62000245846200021c565b62000226565b6200021c565b9050919050565b6000819050919050565b6200026d8362000230565b620002856200027c8262000258565b848454620001c6565b825550505050565b600090565b6200029c6200028d565b620002a981848462000262565b505050565b5b81811015620002d157620002c560008262000292565b600181019050620002af565b5050565b601f8211156200032057620002ea8162000194565b620002f584620001a9565b8101602085101562000305578190505b6200031d6200031485620001a9565b830182620002ae565b50505b505050565b600082821c905092915050565b6000620003456000198460080262000325565b1980831691505092915050565b600062000360838362000332565b9150826002028217905092915050565b6200037b82620000f6565b67ffffffffffffffff81111562000397576200039662000101565b5b620003a382546200015f565b620003b0828285620002d5565b600060209050601f831160018114620003e85760008415620003d3578287015190505b620003df858262000352565b8655506200044f565b601f198416620003f88662000194565b60005b828110156200042257848901518255600182019150602085019450602081019050620003fb565b868310156200044257848901516200043e601f89168262000332565b8355505b6001600288020188555050505b505050505050565b6143e180620004676000396000f3fe60806040526004361061012a5760003560e01c806345f8fa80116100ab578063ae677aa31161006f578063ae677aa3146103f9578063b88d4fde14610415578063be9af5361461043e578063c87b56dd1461045a578063e219fc7514610497578063e985e9c5146104b35761012a565b806345f8fa80146103005780636352211e1461032b57806370a082311461036857806395d89b41146103a5578063a22cb465146103d05761012a565b806312e85585116100f257806312e85585146102285780631e4fec0514610253578063202e37401461028357806323b872dd146102ae57806342842e0e146102d75761012a565b806301ffc9a71461012f57806306fdde031461016c578063081812fc14610197578063095ea7b3146101d45780630f08efe0146101fd575b600080fd5b34801561013b57600080fd5b5061015660048036038101906101519190612bfc565b6104f0565b6040516101639190612c44565b60405180910390f35b34801561017857600080fd5b50610181610551565b60405161018e9190612cef565b60405180910390f35b3480156101a357600080fd5b506101be60048036038101906101b99190612d47565b6105e3565b6040516101cb9190612db5565b60405180910390f35b3480156101e057600080fd5b506101fb60048036038101906101f69190612dfc565b610629565b005b34801561020957600080fd5b50610212610740565b60405161021f9190612f92565b60405180910390f35b34801561023457600080fd5b5061023d610980565b60405161024a9190612fc3565b60405180910390f35b61026d60048036038101906102689190613113565b61098a565b60405161027a9190612fc3565b60405180910390f35b34801561028f57600080fd5b50610298610b3a565b6040516102a59190612f92565b60405180910390f35b3480156102ba57600080fd5b506102d560048036038101906102d0919061316f565b610dfc565b005b3480156102e357600080fd5b506102fe60048036038101906102f9919061316f565b610e5c565b005b34801561030c57600080fd5b50610315610e7c565b6040516103229190612f92565b60405180910390f35b34801561033757600080fd5b50610352600480360381019061034d9190612d47565b61113e565b60405161035f9190612db5565b60405180910390f35b34801561037457600080fd5b5061038f600480360381019061038a91906131c2565b6111c4565b60405161039c9190612fc3565b60405180910390f35b3480156103b157600080fd5b506103ba61127b565b6040516103c79190612cef565b60405180910390f35b3480156103dc57600080fd5b506103f760048036038101906103f2919061321b565b61130d565b005b610413600480360381019061040e9190612d47565b611323565b005b34801561042157600080fd5b5061043c600480360381019061043791906132fc565b6113bd565b005b61045860048036038101906104539190612d47565b61141f565b005b34801561046657600080fd5b50610481600480360381019061047c9190612d47565b6117db565b60405161048e9190612cef565b60405180910390f35b6104b160048036038101906104ac919061337f565b6118ed565b005b3480156104bf57600080fd5b506104da60048036038101906104d591906133bf565b611adc565b6040516104e79190612c44565b60405180910390f35b6000634906490660e01b7bffffffffffffffffffffffffffffffffffffffffffffffffffffffff1916827bffffffffffffffffffffffffffffffffffffffffffffffffffffffff1916148061054a575061054982611b70565b5b9050919050565b6060600080546105609061342e565b80601f016020809104026020016040519081016040528092919081815260200182805461058c9061342e565b80156105d95780601f106105ae576101008083540402835291602001916105d9565b820191906000526020600020905b8154815290600101906020018083116105bc57829003601f168201915b5050505050905090565b60006105ee82611c52565b6004600083815260200190815260200160002060009054906101000a900473ffffffffffffffffffffffffffffffffffffffff169050919050565b60006106348261113e565b90508073ffffffffffffffffffffffffffffffffffffffff168373ffffffffffffffffffffffffffffffffffffffff16036106a4576040517f08c379a000000000000000000000000000000000000000000000000000000000815260040161069b906134d1565b60405180910390fd5b8073ffffffffffffffffffffffffffffffffffffffff166106c3611c9d565b73ffffffffffffffffffffffffffffffffffffffff1614806106f257506106f1816106ec611c9d565b611adc565b5b610731576040517f08c379a000000000000000000000000000000000000000000000000000000000815260040161072890613563565b60405180910390fd5b61073b8383611ca5565b505050565b6060600061074e6008611d5e565b6107586007611d5e565b61076291906135b2565b905060008167ffffffffffffffff8111156107805761077f612fe8565b5b6040519080825280602002602001820160405280156107b957816020015b6107a6612b33565b81526020019060019003908161079e5790505b509050600080600190505b6107ce6007611d5e565b8111610976573073ffffffffffffffffffffffffffffffffffffffff16600b600083815260200190815260200160002060020160009054906101000a900473ffffffffffffffffffffffffffffffffffffffff1673ffffffffffffffffffffffffffffffffffffffff160361096357600b60008281526020019081526020016000206040518060a0016040529081600082015481526020016001820160009054906101000a900473ffffffffffffffffffffffffffffffffffffffff1673ffffffffffffffffffffffffffffffffffffffff1673ffffffffffffffffffffffffffffffffffffffff1681526020016002820160009054906101000a900473ffffffffffffffffffffffffffffffffffffffff1673ffffffffffffffffffffffffffffffffffffffff1673ffffffffffffffffffffffffffffffffffffffff168152602001600382015481526020016004820160009054906101000a900460ff161515151581525050838381518110610949576109486135e6565b5b6020026020010181905250818061095f90613615565b9250505b808061096e90613615565b9150506107c4565b5081935050505090565b6000600954905090565b60006109966007611d6c565b60006109a26007611d5e565b90506109ae3382611d82565b6109b88185611f9f565b6040518060a001604052808281526020013373ffffffffffffffffffffffffffffffffffffffff1681526020013073ffffffffffffffffffffffffffffffffffffffff16815260200184815260200160001515815250600b60008381526020019081526020016000206000820151816000015560208201518160010160006101000a81548173ffffffffffffffffffffffffffffffffffffffff021916908373ffffffffffffffffffffffffffffffffffffffff16021790555060408201518160020160006101000a81548173ffffffffffffffffffffffffffffffffffffffff021916908373ffffffffffffffffffffffffffffffffffffffff1602179055506060820151816003015560808201518160040160006101000a81548160ff021916908315150217905550905050610af1333083612043565b807fb640004f1d14576d0c209e240cad0410e0d8c0c33a09375861fbadae2588a98d3330866000604051610b28949392919061365d565b60405180910390a28091505092915050565b6060600080600190505b610b4e6007611d5e565b8111610bdf573373ffffffffffffffffffffffffffffffffffffffff16600b600083815260200190815260200160002060020160009054906101000a900473ffffffffffffffffffffffffffffffffffffffff1673ffffffffffffffffffffffffffffffffffffffff1603610bcc578180610bc890613615565b9250505b8080610bd790613615565b915050610b44565b5060008167ffffffffffffffff811115610bfc57610bfb612fe8565b5b604051908082528060200260200182016040528015610c3557816020015b610c22612b33565b815260200190600190039081610c1a5790505b509050600080600190505b610c4a6007611d5e565b8111610df2573373ffffffffffffffffffffffffffffffffffffffff16600b600083815260200190815260200160002060020160009054906101000a900473ffffffffffffffffffffffffffffffffffffffff1673ffffffffffffffffffffffffffffffffffffffff1603610ddf57600b60008281526020019081526020016000206040518060a0016040529081600082015481526020016001820160009054906101000a900473ffffffffffffffffffffffffffffffffffffffff1673ffffffffffffffffffffffffffffffffffffffff1673ffffffffffffffffffffffffffffffffffffffff1681526020016002820160009054906101000a900473ffffffffffffffffffffffffffffffffffffffff1673ffffffffffffffffffffffffffffffffffffffff1673ffffffffffffffffffffffffffffffffffffffff168152602001600382015481526020016004820160009054906101000a900460ff161515151581525050838381518110610dc557610dc46135e6565b5b60200260200101819052508180610ddb90613615565b9250505b8080610dea90613615565b915050610c40565b5081935050505090565b610e0d610e07611c9d565b8261233c565b610e4c576040517f08c379a0000000000000000000000000000000000000000000000000000000008152600401610e4390613714565b60405180910390fd5b610e57838383612043565b505050565b610e77838383604051806020016040528060008152506113bd565b505050565b6060600080600190505b610e906007611d5e565b8111610f21573373ffffffffffffffffffffffffffffffffffffffff16600b600083815260200190815260200160002060010160009054906101000a900473ffffffffffffffffffffffffffffffffffffffff1673ffffffffffffffffffffffffffffffffffffffff1603610f0e578180610f0a90613615565b9250505b8080610f1990613615565b915050610e86565b5060008167ffffffffffffffff811115610f3e57610f3d612fe8565b5b604051908082528060200260200182016040528015610f7757816020015b610f64612b33565b815260200190600190039081610f5c5790505b509050600080600190505b610f8c6007611d5e565b8111611134573373ffffffffffffffffffffffffffffffffffffffff16600b600083815260200190815260200160002060010160009054906101000a900473ffffffffffffffffffffffffffffffffffffffff1673ffffffffffffffffffffffffffffffffffffffff160361112157600b60008281526020019081526020016000206040518060a0016040529081600082015481526020016001820160009054906101000a900473ffffffffffffffffffffffffffffffffffffffff1673ffffffffffffffffffffffffffffffffffffffff1673ffffffffffffffffffffffffffffffffffffffff1681526020016002820160009054906101000a900473ffffffffffffffffffffffffffffffffffffffff1673ffffffffffffffffffffffffffffffffffffffff1673ffffffffffffffffffffffffffffffffffffffff168152602001600382015481526020016004820160009054906101000a900460ff161515151581525050838381518110611107576111066135e6565b5b6020026020010181905250818061111d90613615565b9250505b808061112c90613615565b915050610f82565b5081935050505090565b60008061114a836123d1565b9050600073ffffffffffffffffffffffffffffffffffffffff168173ffffffffffffffffffffffffffffffffffffffff16036111bb576040517f08c379a00000000000000000000000000000000000000000000000000000000081526004016111b290613780565b60405180910390fd5b80915050919050565b60008073ffffffffffffffffffffffffffffffffffffffff168273ffffffffffffffffffffffffffffffffffffffff1603611234576040517f08c379a000000000000000000000000000000000000000000000000000000000815260040161122b90613812565b60405180910390fd5b600360008373ffffffffffffffffffffffffffffffffffffffff1673ffffffffffffffffffffffffffffffffffffffff168152602001908152602001600020549050919050565b60606001805461128a9061342e565b80601f01602080910402602001604051908101604052809291908181526020018280546112b69061342e565b80156113035780601f106112d857610100808354040283529160200191611303565b820191906000526020600020905b8154815290600101906020018083116112e657829003601f168201915b5050505050905090565b61131f611318611c9d565b838361240e565b5050565b600a60009054906101000a900473ffffffffffffffffffffffffffffffffffffffff1673ffffffffffffffffffffffffffffffffffffffff163373ffffffffffffffffffffffffffffffffffffffff16146113b3576040517f08c379a00000000000000000000000000000000000000000000000000000000081526004016113aa9061387e565b60405180910390fd5b8060098190555050565b6113ce6113c8611c9d565b8361233c565b61140d576040517f08c379a000000000000000000000000000000000000000000000000000000000815260040161140490613714565b60405180910390fd5b6114198484848461257a565b50505050565b6000600b60008381526020019081526020016000209050600081600301541161147d576040517f08c379a0000000000000000000000000000000000000000000000000000000008152600401611474906138ea565b60405180910390fd5b600015158160040160009054906101000a900460ff161515146114d5576040517f08c379a00000000000000000000000000000000000000000000000000000000081526004016114cc90613956565b60405180910390fd5b8060030154341461151b576040517f08c379a0000000000000000000000000000000000000000000000000000000008152600401611512906139c2565b60405180910390fd5b338160020160006101000a81548173ffffffffffffffffffffffffffffffffffffffff021916908373ffffffffffffffffffffffffffffffffffffffff16021790555060018160040160006101000a81548160ff02191690831515021790555060008160010160006101000a81548173ffffffffffffffffffffffffffffffffffffffff021916908373ffffffffffffffffffffffffffffffffffffffff1602179055506115c96008611d6c565b6115d4303384612043565b600a60009054906101000a900473ffffffffffffffffffffffffffffffffffffffff1673ffffffffffffffffffffffffffffffffffffffff166108fc6009549081150290604051600060405180830381858888f1935050505015801561163e573d6000803e3d6000fd5b508060010160009054906101000a900473ffffffffffffffffffffffffffffffffffffffff1673ffffffffffffffffffffffffffffffffffffffff166108fc349081150290604051600060405180830381858888f193505050501580156116a9573d6000803e3d6000fd5b50817f150ffca547cf855e7fcf5daa82e41c6523b5fb2c8b1309bbb6cf2f87c6ae5a318260010160009054906101000a900473ffffffffffffffffffffffffffffffffffffffff1633846003015460405161170693929190613a41565b60405180910390a280600301543411156117d75760003373ffffffffffffffffffffffffffffffffffffffff1682600301543461174391906135b2565b60405161174f90613aa9565b60006040518083038185875af1925050503d806000811461178c576040519150601f19603f3d011682016040523d82523d6000602084013e611791565b606091505b50509050806117d5576040517f08c379a00000000000000000000000000000000000000000000000000000000081526004016117cc90613b0a565b60405180910390fd5b505b5050565b60606117e682611c52565b60006006600084815260200190815260200160002080546118069061342e565b80601f01602080910402602001604051908101604052809291908181526020018280546118329061342e565b801561187f5780601f106118545761010080835404028352916020019161187f565b820191906000526020600020905b81548152906001019060200180831161186257829003601f168201915b5050505050905060006118906125d6565b905060008151036118a55781925050506118e8565b6000825111156118da5780826040516020016118c2929190613b66565b604051602081830303815290604052925050506118e8565b6118e3846125ed565b925050505b919050565b6000600b600084815260200190815260200160002090503373ffffffffffffffffffffffffffffffffffffffff168160020160009054906101000a900473ffffffffffffffffffffffffffffffffffffffff1673ffffffffffffffffffffffffffffffffffffffff1614611996576040517f08c379a000000000000000000000000000000000000000000000000000000000815260040161198d9061387e565b60405180910390fd5b60095434146119da576040517f08c379a00000000000000000000000000000000000000000000000000000000081526004016119d190613bd6565b60405180910390fd5b60008160040160006101000a81548160ff021916908315150217905550818160030181905550338160010160006101000a81548173ffffffffffffffffffffffffffffffffffffffff021916908373ffffffffffffffffffffffffffffffffffffffff160217905550308160020160006101000a81548173ffffffffffffffffffffffffffffffffffffffff021916908373ffffffffffffffffffffffffffffffffffffffff160217905550611a906008612655565b611a9b333085612043565b827f16995a1968784de2858cd75d406b5a07de5c4b1080374551621df9eb5cc3d935333085604051611acf93929190613bf6565b60405180910390a2505050565b6000600560008473ffffffffffffffffffffffffffffffffffffffff1673ffffffffffffffffffffffffffffffffffffffff16815260200190815260200160002060008373ffffffffffffffffffffffffffffffffffffffff1673ffffffffffffffffffffffffffffffffffffffff16815260200190815260200160002060009054906101000a900460ff16905092915050565b60007f80ac58cd000000000000000000000000000000000000000000000000000000007bffffffffffffffffffffffffffffffffffffffffffffffffffffffff1916827bffffffffffffffffffffffffffffffffffffffffffffffffffffffff19161480611c3b57507f5b5e139f000000000000000000000000000000000000000000000000000000007bffffffffffffffffffffffffffffffffffffffffffffffffffffffff1916827bffffffffffffffffffffffffffffffffffffffffffffffffffffffff1916145b80611c4b5750611c4a826126b1565b5b9050919050565b611c5b8161271b565b611c9a576040517f08c379a0000000000000000000000000000000000000000000000000000000008152600401611c9190613780565b60405180910390fd5b50565b600033905090565b816004600083815260200190815260200160002060006101000a81548173ffffffffffffffffffffffffffffffffffffffff021916908373ffffffffffffffffffffffffffffffffffffffff160217905550808273ffffffffffffffffffffffffffffffffffffffff16611d188361113e565b73ffffffffffffffffffffffffffffffffffffffff167f8c5be1e5ebec7d5bd14f71427d1e84f3dd0314c0f7b2291e5b200ac8c7c3b92560405160405180910390a45050565b600081600001549050919050565b6001816000016000828254019250508190555050565b600073ffffffffffffffffffffffffffffffffffffffff168273ffffffffffffffffffffffffffffffffffffffff1603611df1576040517f08c379a0000000000000000000000000000000000000000000000000000000008152600401611de890613c79565b60405180910390fd5b611dfa8161271b565b15611e3a576040517f08c379a0000000000000000000000000000000000000000000000000000000008152600401611e3190613ce5565b60405180910390fd5b611e4860008383600161275c565b611e518161271b565b15611e91576040517f08c379a0000000000000000000000000000000000000000000000000000000008152600401611e8890613ce5565b60405180910390fd5b6001600360008473ffffffffffffffffffffffffffffffffffffffff1673ffffffffffffffffffffffffffffffffffffffff16815260200190815260200160002060008282540192505081905550816002600083815260200190815260200160002060006101000a81548173ffffffffffffffffffffffffffffffffffffffff021916908373ffffffffffffffffffffffffffffffffffffffff160217905550808273ffffffffffffffffffffffffffffffffffffffff16600073ffffffffffffffffffffffffffffffffffffffff167fddf252ad1be2c89b69c2b068fc378daa952ba7f163c4a11628f55a4df523b3ef60405160405180910390a4611f9b600083836001612762565b5050565b611fa88261271b565b611fe7576040517f08c379a0000000000000000000000000000000000000000000000000000000008152600401611fde90613d77565b60405180910390fd5b806006600084815260200190815260200160002090816120079190613f39565b507ff8e1a15aba9398e019f0b49df1a4fde98ee17ae345cb5f6b5e2c27f5033e8ce7826040516120379190612fc3565b60405180910390a15050565b8273ffffffffffffffffffffffffffffffffffffffff166120638261113e565b73ffffffffffffffffffffffffffffffffffffffff16146120b9576040517f08c379a00000000000000000000000000000000000000000000000000000000081526004016120b09061407d565b60405180910390fd5b600073ffffffffffffffffffffffffffffffffffffffff168273ffffffffffffffffffffffffffffffffffffffff1603612128576040517f08c379a000000000000000000000000000000000000000000000000000000000815260040161211f9061410f565b60405180910390fd5b612135838383600161275c565b8273ffffffffffffffffffffffffffffffffffffffff166121558261113e565b73ffffffffffffffffffffffffffffffffffffffff16146121ab576040517f08c379a00000000000000000000000000000000000000000000000000000000081526004016121a29061407d565b60405180910390fd5b6004600082815260200190815260200160002060006101000a81549073ffffffffffffffffffffffffffffffffffffffff02191690556001600360008573ffffffffffffffffffffffffffffffffffffffff1673ffffffffffffffffffffffffffffffffffffffff168152602001908152602001600020600082825403925050819055506001600360008473ffffffffffffffffffffffffffffffffffffffff1673ffffffffffffffffffffffffffffffffffffffff16815260200190815260200160002060008282540192505081905550816002600083815260200190815260200160002060006101000a81548173ffffffffffffffffffffffffffffffffffffffff021916908373ffffffffffffffffffffffffffffffffffffffff160217905550808273ffffffffffffffffffffffffffffffffffffffff168473ffffffffffffffffffffffffffffffffffffffff167fddf252ad1be2c89b69c2b068fc378daa952ba7f163c4a11628f55a4df523b3ef60405160405180910390a46123378383836001612762565b505050565b6000806123488361113e565b90508073ffffffffffffffffffffffffffffffffffffffff168473ffffffffffffffffffffffffffffffffffffffff16148061238a57506123898185611adc565b5b806123c857508373ffffffffffffffffffffffffffffffffffffffff166123b0846105e3565b73ffffffffffffffffffffffffffffffffffffffff16145b91505092915050565b60006002600083815260200190815260200160002060009054906101000a900473ffffffffffffffffffffffffffffffffffffffff169050919050565b8173ffffffffffffffffffffffffffffffffffffffff168373ffffffffffffffffffffffffffffffffffffffff160361247c576040517f08c379a00000000000000000000000000000000000000000000000000000000081526004016124739061417b565b60405180910390fd5b80600560008573ffffffffffffffffffffffffffffffffffffffff1673ffffffffffffffffffffffffffffffffffffffff16815260200190815260200160002060008473ffffffffffffffffffffffffffffffffffffffff1673ffffffffffffffffffffffffffffffffffffffff16815260200190815260200160002060006101000a81548160ff0219169083151502179055508173ffffffffffffffffffffffffffffffffffffffff168373ffffffffffffffffffffffffffffffffffffffff167f17307eab39ab6107e8899845ad3d59bd9653f200f220920489ca2b5937696c318360405161256d9190612c44565b60405180910390a3505050565b612585848484612043565b61259184848484612768565b6125d0576040517f08c379a00000000000000000000000000000000000000000000000000000000081526004016125c79061420d565b60405180910390fd5b50505050565b606060405180602001604052806000815250905090565b60606125f882611c52565b60006126026125d6565b90506000815111612622576040518060200160405280600081525061264d565b8061262c846128ef565b60405160200161263d929190613b66565b6040516020818303038152906040525b915050919050565b600081600001549050600081116126a1576040517f08c379a000000000000000000000000000000000000000000000000000000000815260040161269890614279565b60405180910390fd5b6001810382600001819055505050565b60007f01ffc9a7000000000000000000000000000000000000000000000000000000007bffffffffffffffffffffffffffffffffffffffffffffffffffffffff1916827bffffffffffffffffffffffffffffffffffffffffffffffffffffffff1916149050919050565b60008073ffffffffffffffffffffffffffffffffffffffff1661273d836123d1565b73ffffffffffffffffffffffffffffffffffffffff1614159050919050565b50505050565b50505050565b60006127898473ffffffffffffffffffffffffffffffffffffffff166129bd565b156128e2578373ffffffffffffffffffffffffffffffffffffffff1663150b7a026127b2611c9d565b8786866040518563ffffffff1660e01b81526004016127d494939291906142ee565b6020604051808303816000875af192505050801561281057506040513d601f19601f8201168201806040525081019061280d919061434f565b60015b612892573d8060008114612840576040519150601f19603f3d011682016040523d82523d6000602084013e612845565b606091505b50600081510361288a576040517f08c379a00000000000000000000000000000000000000000000000000000000081526004016128819061420d565b60405180910390fd5b805181602001fd5b63150b7a0260e01b7bffffffffffffffffffffffffffffffffffffffffffffffffffffffff1916817bffffffffffffffffffffffffffffffffffffffffffffffffffffffff1916149150506128e7565b600190505b949350505050565b6060600060016128fe846129e0565b01905060008167ffffffffffffffff81111561291d5761291c612fe8565b5b6040519080825280601f01601f19166020018201604052801561294f5781602001600182028036833780820191505090505b509050600082602001820190505b6001156129b2578080600190039150507f3031323334353637383961626364656600000000000000000000000000000000600a86061a8153600a85816129a6576129a561437c565b5b0494506000850361295d575b819350505050919050565b6000808273ffffffffffffffffffffffffffffffffffffffff163b119050919050565b600080600090507a184f03e93ff9f4daa797ed6e38ed64bf6a1f0100000000000000008310612a3e577a184f03e93ff9f4daa797ed6e38ed64bf6a1f0100000000000000008381612a3457612a3361437c565b5b0492506040810190505b6d04ee2d6d415b85acef81000000008310612a7b576d04ee2d6d415b85acef81000000008381612a7157612a7061437c565b5b0492506020810190505b662386f26fc100008310612aaa57662386f26fc100008381612aa057612a9f61437c565b5b0492506010810190505b6305f5e1008310612ad3576305f5e1008381612ac957612ac861437c565b5b0492506008810190505b6127108310612af8576127108381612aee57612aed61437c565b5b0492506004810190505b60648310612b1b5760648381612b1157612b1061437c565b5b0492506002810190505b600a8310612b2a576001810190505b80915050919050565b6040518060a0016040528060008152602001600073ffffffffffffffffffffffffffffffffffffffff168152602001600073ffffffffffffffffffffffffffffffffffffffff168152602001600081526020016000151581525090565b6000604051905090565b600080fd5b600080fd5b60007fffffffff0000000000000000000000000000000000000000000000000000000082169050919050565b612bd981612ba4565b8114612be457600080fd5b50565b600081359050612bf681612bd0565b92915050565b600060208284031215612c1257612c11612b9a565b5b6000612c2084828501612be7565b91505092915050565b60008115159050919050565b612c3e81612c29565b82525050565b6000602082019050612c596000830184612c35565b92915050565b600081519050919050565b600082825260208201905092915050565b60005b83811015612c99578082015181840152602081019050612c7e565b60008484015250505050565b6000601f19601f8301169050919050565b6000612cc182612c5f565b612ccb8185612c6a565b9350612cdb818560208601612c7b565b612ce481612ca5565b840191505092915050565b60006020820190508181036000830152612d098184612cb6565b905092915050565b6000819050919050565b612d2481612d11565b8114612d2f57600080fd5b50565b600081359050612d4181612d1b565b92915050565b600060208284031215612d5d57612d5c612b9a565b5b6000612d6b84828501612d32565b91505092915050565b600073ffffffffffffffffffffffffffffffffffffffff82169050919050565b6000612d9f82612d74565b9050919050565b612daf81612d94565b82525050565b6000602082019050612dca6000830184612da6565b92915050565b612dd981612d94565b8114612de457600080fd5b50565b600081359050612df681612dd0565b92915050565b60008060408385031215612e1357612e12612b9a565b5b6000612e2185828601612de7565b9250506020612e3285828601612d32565b9150509250929050565b600081519050919050565b600082825260208201905092915050565b6000819050602082019050919050565b612e7181612d11565b82525050565b6000612e8282612d74565b9050919050565b612e9281612e77565b82525050565b612ea181612c29565b82525050565b60a082016000820151612ebd6000850182612e68565b506020820151612ed06020850182612e89565b506040820151612ee36040850182612e89565b506060820151612ef66060850182612e68565b506080820151612f096080850182612e98565b50505050565b6000612f1b8383612ea7565b60a08301905092915050565b6000602082019050919050565b6000612f3f82612e3c565b612f498185612e47565b9350612f5483612e58565b8060005b83811015612f85578151612f6c8882612f0f565b9750612f7783612f27565b925050600181019050612f58565b5085935050505092915050565b60006020820190508181036000830152612fac8184612f34565b905092915050565b612fbd81612d11565b82525050565b6000602082019050612fd86000830184612fb4565b92915050565b600080fd5b600080fd5b7f4e487b7100000000000000000000000000000000000000000000000000000000600052604160045260246000fd5b61302082612ca5565b810181811067ffffffffffffffff8211171561303f5761303e612fe8565b5b80604052505050565b6000613052612b90565b905061305e8282613017565b919050565b600067ffffffffffffffff82111561307e5761307d612fe8565b5b61308782612ca5565b9050602081019050919050565b82818337600083830152505050565b60006130b66130b184613063565b613048565b9050828152602081018484840111156130d2576130d1612fe3565b5b6130dd848285613094565b509392505050565b600082601f8301126130fa576130f9612fde565b5b813561310a8482602086016130a3565b91505092915050565b6000806040838503121561312a57613129612b9a565b5b600083013567ffffffffffffffff81111561314857613147612b9f565b5b613154858286016130e5565b925050602061316585828601612d32565b9150509250929050565b60008060006060848603121561318857613187612b9a565b5b600061319686828701612de7565b93505060206131a786828701612de7565b92505060406131b886828701612d32565b9150509250925092565b6000602082840312156131d8576131d7612b9a565b5b60006131e684828501612de7565b91505092915050565b6131f881612c29565b811461320357600080fd5b50565b600081359050613215816131ef565b92915050565b6000806040838503121561323257613231612b9a565b5b600061324085828601612de7565b925050602061325185828601613206565b9150509250929050565b600067ffffffffffffffff82111561327657613275612fe8565b5b61327f82612ca5565b9050602081019050919050565b600061329f61329a8461325b565b613048565b9050828152602081018484840111156132bb576132ba612fe3565b5b6132c6848285613094565b509392505050565b600082601f8301126132e3576132e2612fde565b5b81356132f384826020860161328c565b91505092915050565b6000806000806080858703121561331657613315612b9a565b5b600061332487828801612de7565b945050602061333587828801612de7565b935050604061334687828801612d32565b925050606085013567ffffffffffffffff81111561336757613366612b9f565b5b613373878288016132ce565b91505092959194509250565b6000806040838503121561339657613395612b9a565b5b60006133a485828601612d32565b92505060206133b585828601612d32565b9150509250929050565b600080604083850312156133d6576133d5612b9a565b5b60006133e485828601612de7565b92505060206133f585828601612de7565b9150509250929050565b7f4e487b7100000000000000000000000000000000000000000000000000000000600052602260045260246000fd5b6000600282049050600182168061344657607f821691505b602082108103613459576134586133ff565b5b50919050565b7f4552433732313a20617070726f76616c20746f2063757272656e74206f776e6560008201527f7200000000000000000000000000000000000000000000000000000000000000602082015250565b60006134bb602183612c6a565b91506134c68261345f565b604082019050919050565b600060208201905081810360008301526134ea816134ae565b9050919050565b7f4552433732313a20617070726f76652063616c6c6572206973206e6f7420746f60008201527f6b656e206f776e6572206f7220617070726f76656420666f7220616c6c000000602082015250565b600061354d603d83612c6a565b9150613558826134f1565b604082019050919050565b6000602082019050818103600083015261357c81613540565b9050919050565b7f4e487b7100000000000000000000000000000000000000000000000000000000600052601160045260246000fd5b60006135bd82612d11565b91506135c883612d11565b92508282039050818111156135e0576135df613583565b5b92915050565b7f4e487b7100000000000000000000000000000000000000000000000000000000600052603260045260246000fd5b600061362082612d11565b91507fffffffffffffffffffffffffffffffffffffffffffffffffffffffffffffffff820361365257613651613583565b5b600182019050919050565b60006080820190506136726000830187612da6565b61367f6020830186612da6565b61368c6040830185612fb4565b6136996060830184612c35565b95945050505050565b7f4552433732313a2063616c6c6572206973206e6f7420746f6b656e206f776e6560008201527f72206f7220617070726f76656400000000000000000000000000000000000000602082015250565b60006136fe602d83612c6a565b9150613709826136a2565b604082019050919050565b6000602082019050818103600083015261372d816136f1565b9050919050565b7f4552433732313a20696e76616c696420746f6b656e2049440000000000000000600082015250565b600061376a601883612c6a565b915061377582613734565b602082019050919050565b600060208201905081810360008301526137998161375d565b9050919050565b7f4552433732313a2061646472657373207a65726f206973206e6f74206120766160008201527f6c6964206f776e65720000000000000000000000000000000000000000000000602082015250565b60006137fc602983612c6a565b9150613807826137a0565b604082019050919050565b6000602082019050818103600083015261382b816137ef565b9050919050565b7f4e6f7420617574686f72697a6564000000000000000000000000000000000000600082015250565b6000613868600e83612c6a565b915061387382613832565b602082019050919050565b600060208201905081810360008301526138978161385b565b9050919050565b7f496e76616c696420707269636500000000000000000000000000000000000000600082015250565b60006138d4600d83612c6a565b91506138df8261389e565b602082019050919050565b60006020820190508181036000830152613903816138c7565b9050919050565b7f416c726561647920736f6c640000000000000000000000000000000000000000600082015250565b6000613940600c83612c6a565b915061394b8261390a565b602082019050919050565b6000602082019050818103600083015261396f81613933565b9050919050565b7f496e76616c696420616d6f756e74000000000000000000000000000000000000600082015250565b60006139ac600e83612c6a565b91506139b782613976565b602082019050919050565b600060208201905081810360008301526139db8161399f565b9050919050565b6000819050919050565b6000613a07613a026139fd84612d74565b6139e2565b612d74565b9050919050565b6000613a19826139ec565b9050919050565b6000613a2b82613a0e565b9050919050565b613a3b81613a20565b82525050565b6000606082019050613a566000830186613a32565b613a636020830185612da6565b613a706040830184612fb4565b949350505050565b600081905092915050565b50565b6000613a93600083613a78565b9150613a9e82613a83565b600082019050919050565b6000613ab482613a86565b9150819050919050565b7f526566756e64206661696c656400000000000000000000000000000000000000600082015250565b6000613af4600d83612c6a565b9150613aff82613abe565b602082019050919050565b60006020820190508181036000830152613b2381613ae7565b9050919050565b600081905092915050565b6000613b4082612c5f565b613b4a8185613b2a565b9350613b5a818560208601612c7b565b80840191505092915050565b6000613b728285613b35565b9150613b7e8284613b35565b91508190509392505050565b7f496e76616c6964206c697374696e672070726963650000000000000000000000600082015250565b6000613bc0601583612c6a565b9150613bcb82613b8a565b602082019050919050565b60006020820190508181036000830152613bef81613bb3565b9050919050565b6000606082019050613c0b6000830186612da6565b613c186020830185612da6565b613c256040830184612fb4565b949350505050565b7f4552433732313a206d696e7420746f20746865207a65726f2061646472657373600082015250565b6000613c63602083612c6a565b9150613c6e82613c2d565b602082019050919050565b60006020820190508181036000830152613c9281613c56565b9050919050565b7f4552433732313a20746f6b656e20616c7265616479206d696e74656400000000600082015250565b6000613ccf601c83612c6a565b9150613cda82613c99565b602082019050919050565b60006020820190508181036000830152613cfe81613cc2565b9050919050565b7f45524337323155524953746f726167653a2055524920736574206f66206e6f6e60008201527f6578697374656e7420746f6b656e000000000000000000000000000000000000602082015250565b6000613d61602e83612c6a565b9150613d6c82613d05565b604082019050919050565b60006020820190508181036000830152613d9081613d54565b9050919050565b60008190508160005260206000209050919050565b60006020601f8301049050919050565b600082821b905092915050565b600060088302613df97fffffffffffffffffffffffffffffffffffffffffffffffffffffffffffffffff82613dbc565b613e038683613dbc565b95508019841693508086168417925050509392505050565b6000613e36613e31613e2c84612d11565b6139e2565b612d11565b9050919050565b6000819050919050565b613e5083613e1b565b613e64613e5c82613e3d565b848454613dc9565b825550505050565b600090565b613e79613e6c565b613e84818484613e47565b505050565b5b81811015613ea857613e9d600082613e71565b600181019050613e8a565b5050565b601f821115613eed57613ebe81613d97565b613ec784613dac565b81016020851015613ed6578190505b613eea613ee285613dac565b830182613e89565b50505b505050565b600082821c905092915050565b6000613f1060001984600802613ef2565b1980831691505092915050565b6000613f298383613eff565b9150826002028217905092915050565b613f4282612c5f565b67ffffffffffffffff811115613f5b57613f5a612fe8565b5b613f65825461342e565b613f70828285613eac565b600060209050601f831160018114613fa35760008415613f91578287015190505b613f9b8582613f1d565b865550614003565b601f198416613fb186613d97565b60005b82811015613fd957848901518255600182019150602085019450602081019050613fb4565b86831015613ff65784890151613ff2601f891682613eff565b8355505b6001600288020188555050505b505050505050565b7f4552433732313a207472616e736665722066726f6d20696e636f72726563742060008201527f6f776e6572000000000000000000000000000000000000000000000000000000602082015250565b6000614067602583612c6a565b91506140728261400b565b604082019050919050565b600060208201905081810360008301526140968161405a565b9050919050565b7f4552433732313a207472616e7366657220746f20746865207a65726f2061646460008201527f7265737300000000000000000000000000000000000000000000000000000000602082015250565b60006140f9602483612c6a565b91506141048261409d565b604082019050919050565b60006020820190508181036000830152614128816140ec565b9050919050565b7f4552433732313a20617070726f766520746f2063616c6c657200000000000000600082015250565b6000614165601983612c6a565b91506141708261412f565b602082019050919050565b6000602082019050818103600083015261419481614158565b9050919050565b7f4552433732313a207472616e7366657220746f206e6f6e20455243373231526560008201527f63656976657220696d706c656d656e7465720000000000000000000000000000602082015250565b60006141f7603283612c6a565b91506142028261419b565b604082019050919050565b60006020820190508181036000830152614226816141ea565b9050919050565b7f436f756e7465723a2064656372656d656e74206f766572666c6f770000000000600082015250565b6000614263601b83612c6a565b915061426e8261422d565b602082019050919050565b6000602082019050818103600083015261429281614256565b9050919050565b600081519050919050565b600082825260208201905092915050565b60006142c082614299565b6142ca81856142a4565b93506142da818560208601612c7b565b6142e381612ca5565b840191505092915050565b60006080820190506143036000830187612da6565b6143106020830186612da6565b61431d6040830185612fb4565b818103606083015261432f81846142b5565b905095945050505050565b60008151905061434981612bd0565b92915050565b60006020828403121561436557614364612b9a565b5b60006143738482850161433a565b91505092915050565b7f4e487b7100000000000000000000000000000000000000000000000000000000600052601260045260246000fdfea2646970667358221220f21cee387c30f05d8e3f2f72512d81e0089f5eeb6ebbf3e715ed065807d6b8f864736f6c63430008120033",
  "linkReferences": {},
  "deployedLinkReferences": {}
}